:1000000040310020D56C000089620100ED6B0000DA
:10001000ED6B0000ED6B0000ED6B0000ED6B000080
:10002000ED6B0000ED6B0000ED6B0000AD6A0000B1
:10003000ED6B0000ED6B0000556A000035620100B9
:10004000956C00007D8F0100956C0000956C0000A0
:10005000956C0000956C0000956C0000956C00009C
:10006000956C0000956C0000956C0000956C00008C
:10007000956C0000956C0000956C0000956C00007C
:10008000956C0000956C0000956C0000956C00006C
:10009000956C0000956C0000956C0000956C00005C
:1000A000956C0000956C0000956C0000956C00004C
:1000B000956C0000956C0000956C0000956C00003C
:1000C000956C0000956C0000956C0000956C00002C
:0C00D000956C0000956C0000956C000021
:0400DC00FFFFFFFF24
:1000E00080F0004002E000BF81F0004142001FBFED
:1000F0005FEA410392EA030F7FEA226C7FEA236CF6
:100100006AD04FEA1262D2EB1363C1BFD2184140EA
:1001100048404140B8BF5B42192B88BF704710F080
:10012000004F40F4000020F07F4018BF404211F023
:10013000004F41F4000121F07F4118BF494292EA8B
:10014000030F3FD0A2F1010241FA03FC10EB0C00B7
:10015000C3F1200301FA03F100F0004302D5494244
:1001600060EB4000B0F5000F13D3B0F1807F06D3F1
:1001700040084FEA310102F10102FE2A51D2B1F1E9
:10018000004F40EBC25008BF20F0010040EA0300DE
:100190007047490040EB000010F4000FA2F101028B
:1001A000EDD1B0FA80FCACF1080CB2EB0C0200FA15
:1001B0000CF0AABF00EBC25052421843BCBFD04063
:1001C0001843704792F0000F81F4000106BF80F4DD
:1001D00000000132013BB5E74FEA41037FEA226CA0
:1001E00018BF7FEA236C21D092EA030F04D092F06B
:1001F000000F08BF0846704790EA010F1CBF00209F
:10020000704712F07F4F04D1400028BF40F00040FB
:10021000704712F100723CBF00F50000704700F01B
:10022000004343F0FE4040F4000070477FEA226242
:1002300016BF08467FEA23630146420206BF5FEA13
:10024000412390EA010F40F4800070474FF0000313
:1002500004E000BF10F0004348BF40425FEA000CDA
:1002600008BF704743F0964301464FF000001CE082
:1002700050EA010208BF70474FF000030AE000BFD8
:1002800050EA010208BF704711F0004302D5404216
:1002900061EB41015FEA010C02BF84460146002088
:1002A00043F0B64308BFA3F18053A3F50003BCFAA3
:1002B0008CF2083AA3EBC25310DB01FA02FC634450
:1002C00000FA02FCC2F12002BCF1004F20FA02F257
:1002D00043EB020008BF20F00100704702F120024A
:1002E00001FA02FCC2F1200250EA4C0021FA02F2AB
:1002F00043EB020008BF20EADC7070474FF0FF0CB0
:100300001CEAD0521EBF1CEAD15392EA0C0F93EAAA
:100310000C0F6FD01A4480EA010C400218BF5FEA4C
:1003200041211ED04FF0006343EA501043EA5111BF
:10033000A0FB01310CF00040B1F5000F3EBF4900B9
:1003400041EAD3715B0040EA010062F17F02FD2ABD
:100350001DD8B3F1004F40EBC25008BF20F00100A0
:10036000704790F0000F0CF0004C08BF49024CEAB7
:10037000502040EA51207F3AC2BFD2F1FF0340EA49
:10038000C250704740F400004FF00003013A5DDCBA
:1003900012F1190FDCBF00F000407047C2F10002FB
:1003A000410021FA02F1C2F1200200FA02FC5FEAE8
:1003B000310040F1000053EA4C0308BF20EADC7032
:1003C000704792F0000F00F0004C02BF400010F4A4
:1003D000000F013AF9D040EA0C0093F0000F01F051
:1003E000004C02BF490011F4000F013BF9D041EA73
:1003F0000C018FE70CEAD15392EA0C0F18BF93EA75
:100400000C0F0AD030F0004C18BF31F0004CD8D19E
:1004100080EA010000F00040704790F0000F17BF25
:1004200090F0004F084691F0000F91F0004F14D06B
:1004300092EA0C0F01D142020FD193EA0C0F03D1C3
:100440004B0218BF084608D180EA010000F00040C6
:1004500040F0FE4040F40000704740F0FE4040F4A1
:10046000400070474FF0FF0C1CEAD0521EBF1CEA40
:10047000D15392EA0C0F93EA0C0F69D0A2EB03025E
:1004800080EA010C49024FEA402037D04FF08053F8
:1004900043EA111143EA10130CF000408B4238BFBD
:1004A0005B0042F17D024FF4000C8B4224BF5B1ACB
:1004B00040EA0C00B3EB510F24BFA3EB510340EA19
:1004C0005C00B3EB910F24BFA3EB910340EA9C00C7
:1004D000B3EBD10F24BFA3EBD10340EADC001B0137
:1004E00018BF5FEA1C1CE0D1FD2A3FF650AF8B42DB
:1004F00040EBC25008BF20F0010070470CF0004CE8
:100500004CEA50207F32C2BFD2F1FF0340EAC25012
:10051000704740F400004FF00003013A37E792F0D3
:10052000000F00F0004C02BF400010F4000F013A31
:10053000F9D040EA0C0093F0000F01F0004C02BF2C
:10054000490011F4000F013BF9D041EA0C0195E795
:100550000CEAD15392EA0C0F08D142027FF47DAF2E
:1005600093EA0C0F7FF470AF084676E793EA0C0F1E
:1005700004D14B023FF44CAF08466EE730F0004C1C
:1005800018BF31F0004CCAD130F000427FF45CAFAC
:1005900031F000437FF43CAF5FE700BF4FF0FF3C1A
:1005A00006E000BF4FF0010C02E000BF4FF0010C6D
:1005B0004DF804CD4FEA40024FEA41037FEA226C36
:1005C00018BF7FEA236C11D001B052EA530C18BF58
:1005D00090EA010F58BFB2EB030088BFC81738BFBD
:1005E0006FEAE17018BF40F0010070477FEA226CAB
:1005F00002D15FEA402C05D17FEA236CE4D15FEAA7
:10060000412CE1D05DF8040B704700BF84460846DA
:100610006146FFE70FB5FFF7C9FF002848BF10F19B
:10062000000F0FBD4DF808EDFFF7F4FF0CBF0120E0
:1006300000205DF808FB00BF4DF808EDFFF7EAFF6A
:1006400034BF012000205DF808FB00BF4DF808ED25
:10065000FFF7E0FF94BF012000205DF808FB00BF1A
:100660004DF808EDFFF7D2FF94BF012000205DF8A0
:1006700008FB00BF4DF808EDFFF7C8FF34BF0120AD
:1006800000205DF808FB00BF42000ED2B2F1FE4F21
:100690000BD34FF09E03B3EB126209D44FEA002351
:1006A00043F0004323FA02F070474FF00000704718
:1006B00012F1610F01D1420202D14FF0FF307047B9
:1006C0004FF00000704700BF7BB972B90029BEBF70
:1006D00000204FF0004106E008BF00281CBF6FF06B
:1006E00000414FF0FF3000F057B8ADF1080C6DE954
:1006F00004CE002909DB002B1ADB00F04FF8DDF8EF
:1007000004E0DDE9022304B07047404261EB41019F
:10071000002B1BDB00F042F8DDF804E0DDE90223EA
:1007200004B0404261EB4101524263EB4303704726
:10073000524263EB430300F031F8DDF804E0DDE9F9
:10074000022304B0404261EB41017047524263EB27
:10075000430300F023F8DDF804E0DDE9022304B0F0
:10076000524263EB4303704753B94AB9002908BFAB
:1007700000281CBF4FF0FF314FF0FF3000F00CB8E5
:10078000ADF1080C6DE904CE00F008F8DDF804E0E6
:10079000DDE9022304B07047704700BF2DE9F04F38
:1007A000099F154604468E461E46002B40F0CC801D
:1007B0008A42B2FA82FC4CD9BCF1000F0BD0CCF1CA
:1007C000200801FA0CFE20FA08F802FA0CF548EAB3
:1007D0000E0E00FA0CF44FEA15491FFA85F8BEFB1D
:1007E000F9FA210C09FB1AE30AFB08FB41EA03436F
:1007F0009B452AD9EB180AF1FF3004D29B4502D958
:10080000AAF102002B44A3EB0B03A4B2B3FBF9F251
:1008100009FB123302FB08F844EA0344A04516D949
:100820002C1902F1FF3303D2A04501D9931E2C44A9
:10083000A4EB080443EA004027B124FA0CF4002397
:100840003C607B603146BDE8F08F5046DBE71346E5
:10085000EEE702B9FFDEBCF1000F2ED18B1A0126A4
:100860004FEA154EAAB2B3FBFEF8210C0EFB18336B
:1008700008FB02F941EA0343994561D9EB1808F1F5
:10088000FF3004D2994502D9A8F102002B44A3EB12
:100890000903A4B2B3FBFEF10EFB11334A4344EA51
:1008A0000344A2424ED92C1901F1FF3303D2A242D4
:1008B00001D98B1E2C44A41ABCE7CCF1200E02FAFD
:1008C0000CF521FA0EF901FA0CF320FA0EFE4EEAAD
:1008D00003034FEA154800FA0CF4B9FBF8F11FFACC
:1008E00085FE08FB1192180C01FB0EF640EA02424D
:1008F000964221D9AA1801F1FF3003D2964201D9BC
:10090000881E2A44921B9BB2B2FBF8F908FB1922FD
:1009100009FB0EFE43EA02439E450FD9EB1809F18D
:10092000FF3604D29E4502D9A9F102062B44A3EB5F
:100930000E0346EA004693E70846E3E74E46F6E72D
:100940004046A4E70B46B6E78B4205D90FB1C7E98D
:1009500000010026304675E7B3FA83FCBCF1000FB6
:100960000FD18B4201D3824209D8841A61EB030E66
:100970000120002F6AD0C7E9004E002662E76046DA
:10098000F7E7CCF1200E03FA0CF322FA0EF521FA68
:100990000EF41D4301FA0CF320FA0EF10B434FEA5B
:1009A000154A00FA0CF6B4FBFAF91FFA85F80AFBAF
:1009B00019401C0C09FB08F144EA0044A14202FA68
:1009C0000CF23FD92C1909F1FF3004D2A14202D90F
:1009D000A9F102002C44641A9BB2B4FBFAF90AFB99
:1009E000194409FB08F843EA044188452CD96918E1
:1009F00009F1FF3304D2884502D9A9F10203294441
:100A000043EA0040A1EB0801A0FB02894945C24628
:100A10004C4602D306D1464504D2B8EB020A69EB34
:100A20000504013897B1B6EB0A0361EB040606FA38
:100A30000EFE23FA0CF34EEA030326FA0CF6C7E97E
:100A400000369AE74846C6E74B46D9E73E46F9E600
:100A50002DE9F041574DD5F8D430996811F00101D6
:100A600086B022D101AA40F6034006F0F7FF044603
:100A7000002840F09A80019B9B681B7893B9BFF3D4
:100A80005B8F2B4653F8702FBFF35B8F02F00D0284
:100A9000BFF35B8F53E8001F43E800200028F9D123
:100AA000BFF35B8F019811F053FA01AA002141F2C4
:100AB000030006F0D3FF0446002876D1019B3E4890
:100AC00099680822013115F096FC019811F040FA5E
:100AD000214601AA41F2010006F0C0FF04460028A9
:100AE00063D1019883685A782A74D9789A7842EA4F
:100AF00001226A821A796A74197ADA7942EA012241
:100B0000AA825A799B7942EA0323EB8211F020FAF8
:100B100003212A4815F0BAFE014648BB01AA41F25A
:100B2000090006F09BFF044600283ED1019B02907D
:100B30009E68ADF80C000136062202A9304615F079
:100B40004AFC90B11E4B186804909B88ADF8143095
:100B5000062204A9304615F03EFC30B13146194852
:100B600015F0C7FD01232C70EB71019811F0F0F91D
:100B700001AA002141F2020006F070FF0446A0B96C
:100B8000019B114899684022013115F034FC95F819
:100B90004230019843F0060385F8423011F0D8F94D
:100BA0002B7F590612D46FF01204204606B0BDE820
:100BB000F08100BFF8450020104600206846002064
:100BC000D8A00100F945002018460020214601AABE
:100BD00042F2030006F042FF04460028E5D1019BE3
:100BE000C74899680822013115F005FC019811F0F9
:100BF000AFF9214601AA42F2020006F02FFF044697
:100C00000028D2D1019B9B68B3F80120A5F8882069
:100C100091B239B1DA78BB48032A28BF03221146C2
:100C200018F016FF019811F093F92C7F14F02004AE
:100C300000F0EA8095F83C301A0711D501AA00218E
:100C400042F21C0006F00AFF04460028ADD10198CC
:100C5000836853F8012F5B68C5E9202311F078F908
:100C600095F878309B0600F1EB8095F878305F06B8
:100C700000F11281082142F2010006F0ADFE0446A7
:100C8000002800F0C8800821084418F0D4FA95F82C
:100C9000781011F0400F40F2022308BF03238E07A3
:100CA0004CBF43F02C0343F00C030246880695F832
:100CB000790048BF43F0400310F0090F18BF43F418
:100CC0000063C90795F8421001F0060148BF43F0E0
:100CD0001003062908BF43F4C0731846002115F01D
:100CE000DEFD2146002242F2010006F0B7FE044676
:100CF00000287FF45AAF2B7F9A0621D4B5F88810CC
:100D0000F1B901AA41F2050006F0A8FE0446002848
:100D10007FF44BAFB5F888307BB9019B79489B686D
:100D200099785A7842EA0122A5F888209A88032AFD
:100D300028BF0322114618F08BFE019811F008F924
:100D4000082140F6014006F047FE0446002862D024
:100D50000821084418F06FFA95F87830DB0702464E
:100D600040F1DC8064A1D1E9000115F098FD214635
:100D7000002240F6014006F071FE044600287FF490
:100D800014AF014601AA4FF6014006F067FE044683
:100D900028BB019811F0DCF8214601AA4FF6024069
:100DA00006F05CFE0446D0B9019B574899680222C0
:100DB000013115F020FB019811F0CAF801AA214673
:100DC0004FF6034006F04AFE48B9019B4F48996828
:100DD0000122114415F00FFB019811F0B9F808F049
:100DE000B7FA044600287FF4E0AE4949494818F0B4
:100DF000CCFEEB79002B3FF4D8AE0421464815F029
:100E000069FC07F045FBD0E6022140F66D4006F094
:100E1000E3FD064610B96FF03604C6E6022108303D
:100E200018F009FA0123447003702246314640F657
:100E30006D4006F013FE044600283FF4FBAEB4E616
:100E400001AA002142F22F0006F008FE0446002805
:100E50007FF4ABAE01988368B3F80180B3F80370F8
:100E600011F076F8042142F2240006F0B5FD0646A2
:100E70000028D0D00421083018F0DDF92246A0F86F
:100E800000804780314642F2240006F0E7FD044628
:100E900000283FF4EAAE88E6022142F22E0006F076
:100EA0009BFD04460028B6D00221083018F0C3F993
:100EB0006FF07B030370032343702146002242F24C
:100EC0002E0006F0CBFD044600287FF46EAE0146EE
:100ED00001AA42F22A0006F0C1FD044600287FF470
:100EE00064AE019883685B7885F8A43011F030F81F
:100EF000C0E600BFAFF300809088000200800020B1
:100F000070460020844600205946002058460020A4
:100F1000CD7B0000E04600206846002001484FF0ED
:100F2000005122E7108800022DE9F04FC64D91B024
:100F30001C462B7C0B91834643B1C44813F086FBBF
:100F4000404080F311884FF0030002DF94F8203016
:100F50000733DBB22B7494F91D30002B09DA636D73
:100F6000E16D02FB03330B44A16D994294BFE1652F
:100F7000E365268D94F874303244668C92B22285F3
:100F8000324496B294F875209A4240F0458194F824
:100F9000669119F0040940F03F8194F8952094F887
:100FA00094309A425FD005200DF030F994F89420E7
:100FB00094F895309B1ADF0740F12E8194F8508009
:100FC00018F0200822D084F8952002200CF042FA74
:100FD000074608B99E48B1E7238CC38002230371FA
:100FE000037A43F00303037209234372C372082296
:100FF00049460C3015F029FAD4F898303B731A0A98
:101000001B0C7A73BB730DF075F805E1914817F06E
:10101000C5FA0746002800F0FF8094F89530013BA0
:1010200084F895308C4BC4F89830037943F003036F
:1010300003710923437194F91D30002BACBF0823C1
:101040000E230822C3714146104415F0FEF9D4F86E
:1010500098303B721A0A1B0C7A72BB7239462046D2
:1010600017F089FDB3E094F89D2094F89C309A42E3
:1010700057D005200DF0CAF894F89C2094F89D30C4
:101080009B1AD80740F1C88094F89E30D90725D420
:10109000704817F083FA0146002800F0BD8094F8EC
:1010A0009D30013B84F89D3094F89E3043F001035D
:1010B00084F89E30037943F00303037106234371E0
:1010C0000C23C3710A2303726FF00E0343720523CE
:1010D00083724FF0FF33C3720373C0E79B0740F185
:1010E000978784F89D2002200CF0B4F900283FF483
:1010F00071AF238CC38002230371037A43F003038F
:101100000372062343720C23C37294F89F30037357
:10111000B4F8A030A0F80D30B4F8A230A0F80F3029
:1011200071E794F8D12094F8D0309A4200F04281CF
:1011300005200DF06BF8D5F888310BB19C426BD1CE
:1011400094F8D23003F00703052B00F26187DFE843
:1011500013F00600430007016300630063003D488D
:1011600017F01CFA0146002856D094F8D230042219
:1011700062F3020384F8D230037943F0030303716E
:10118000182343710F23C371B4F8D4300381B4F82A
:10119000D6304381B4F8D8308381B4F8DA30C381D3
:1011A00000230374C37403754FF0FF33A0F811607C
:1011B00043758375C375037643768376C376037769
:1011C00043778377204617F0D6FCC5F88841B4F8FA
:1011D0004230A4F844301FE094F8D370002F3DD083
:1011E0001C4817F0DBF90146B0B1037943F0030363
:1011F00003711123C371032343710F23037294F806
:10120000D3304372204617F0B6FC94F8D03084F8FF
:10121000D1300023C5F8883194F8752094F87430E3
:101220009A4200F0978405200CF0F0FF94F8763095
:10123000013B052B00F2EC86DFE813F07F024D0442
:10124000DE04EA06E205FD053009002069B601006A
:10125000E3B401008C0A00207F41010094F91D30A5
:10126000002B3ADB94F8751094F874308B42D3D18C
:1012700094F8D230C4F88470052262F3020394F823
:10128000DC2084F8D230012384F8883012B3B4F81B
:10129000D430B3FBF2F3013313FB02F39BB2A4F897
:1012A0007A30D4F8D830E36794F87830022262F3C9
:1012B000010394F8D22082F00802C2F3C00262F364
:1012C000820384F878300139012384F8763084F879
:1012D0007510A1E7B4F8D630E1E7CC4817F05EF915
:1012E0000146002898D0037943F0030303711823C3
:1012F00043711023C371B4F8D4300381B4F8D630ED
:101300004381B4F8D8308381B4F8DA30C38194F8DB
:10131000DC300374B4F8DE30A0F81130B4F8E030FB
:10132000A0F81330B4F8E230A0F81530B4F8E43087
:10133000A0F81730B4F8E630A0F81930B4F8E83067
:10134000A0F81B30B4F8EA30A0F81D30204617F0A2
:1013500012FC94F8D03084F8D130C5F888715BE77E
:1013600094F866311F073FF557AF02200CF072F872
:1013700000283FF451AF94F8D230032262F3020305
:1013800084F8D230238CC38002230371037A134381
:101390000372182343720F23C372B4F8D4308381CD
:1013A000B4F8D630C381B4F8D8300382B4F8DA3058
:1013B000438228E694F8F92094F8F8309A4200F035
:1013C000088105200CF022FF94F8FA3003F007039F
:1013D000072B00F01D8601229A4012F04E0F7FF479
:1013E0001BAF12F0300F3AD1002B40F011860CF0F9
:1013F0001BF80746D5F8300117F0FEF8384480B2E4
:10140000FF2801D9824899E595F83A3183427FF463
:1014100003AF7E4817F0C2F8014600283FF4FCAE47
:1014200094F8FA30B4F8FE70B4F80221A7850120D0
:10143000628660F3020384F8FA300B798F8143F0FF
:1014400003030B7109234B711423CB711B230B7204
:1014500000234B7248238B72C872CA81FFE50BF0E0
:10146000E3FF0746D5F8300117F0C6F8384480B2DC
:10147000FF28C7D895F83A31834240F0A580B4F8E8
:10148000FC302386B4F80031E38694F86731B4F871
:10149000FE90B4F802816FF3820384F8673194F808
:1014A000FA3003F00702042A4ED1B4F80421002ACE
:1014B0003CD194F8F83084F8F930A4F84420D5F8F9
:1014C0000C0117F099F8D5F8CC300BB1013080B28F
:1014D000D5F800310BB1013080B2278E95F810316C
:1014E0000E37013027F003079842BFB25FD0B5F83E
:1014F0003831BB425BD302200BF0ACFF00283FF435
:1015000069AD238CC38002230371037A43F0030384
:101510000372092343721523C372238E8381E38EE2
:10152000A0F81090C381A0F812806CE5A4F8FE200A
:10153000B4F80611A4F802110022A4F8042162F301
:10154000020384F8FA30BAE70622F8E70BB995F8F7
:101550004031D5F83C21013BDBB285F8423152F8ED
:1015600023305146186817F032F895F8402195F865
:101570005431013A934201DB2648DFE4013385F818
:10158000543195F8423195F841219342DED1238EB2
:10159000B5F83621282B98BF3427B2FBF7F2D2B228
:1015A000A5F8387185F83A2122B91B48C6E4DFF85E
:1015B00070A0E6E7D5F82C01184B394616F0CAFFA3
:1015C00004200BF059FF96E700232B740136668444
:1015D0007EE294F8092194F808319A423FF41CAE57
:1015E00005200CF013FE94F80A3103F00302032ADD
:1015F00000F20E8501A151F822F000BF251600006F
:101600001912000019120000851600008C0A002033
:10161000E2B001000AB1010055B10100600A0020EA
:10162000780A0020664816F0B9FF014600283FF40A
:10163000F3AD94F80A3194F83900012262F3010302
:1016400084F80A31DBB2C3F38207C3F3421363F3B6
:10165000C50094F8382084F8390094F80B0167F33A
:101660000202C0F3000060F3861284F838200A7981
:101670000F7242F003020A7103224A711622CA71E4
:101680004B72ECE494F8752094F8741091427FF456
:10169000C3AD94F8081184F80911C3F382018807D7
:1016A00039D5022161F3840384F80A3194F80A31B0
:1016B0005909880738D5022161F3471384F80A31A4
:1016C00094F80A1194F83830C1F38200C3F3C203CE
:1016D000834208BF002094F8783060F3840394F8C4
:1016E0003A00490900F00700884208BF002161F371
:1016F000471394F80B11DBB2C1F3400143F001032F
:1017000061F3410384F87830013A062384F8763097
:1017100084F8752080E5CF0701D50121C2E711F0DB
:10172000040118BF0421BDE7CF0701D50121C3E79C
:1017300011F0040118BF0421BEE7D5F888310BB9B8
:10174000C5F8884194F8783013F003033AD01C4868
:1017500016F024FF0146002800F0FC8194F8783050
:1017600002796FF3010384F87830E38C3344063355
:101770009BB242F00302A4F8803002710C22427145
:101780000022C27194F888200272D4F8842040F2BA
:10179000E240B2FBF0F2A1F80920B4F87A20A1F8F7
:1017A0000B20B4F87C20A1F80D20B4F87E20A1F81D
:1017B0000F20A1F81130204617F0DDF9CAE100BF73
:1017C0008C0A0020B4F88070F21B92B210040C92C4
:1017D00000F1C08194F8742084F8752094F8D0103A
:1017E00094F8D1208A4209D094F8D22002F007025E
:1017F000052A04BF84F8D110A4F84430D5F8883104
:10180000B4F87A209C4204BF0023C5F88831A38C29
:101810009A4214D1B4F87C10E38C99420FD140F273
:10182000E2435A43B4F87E3042F2107101FB0323C5
:10183000013B93FBF2F3E28F9BB29A4216D0022057
:101840000BF008FE00283FF4C5AB238CC3800A23AD
:10185000037100230372B4F87A304381B4F87C300A
:101860008381B4F87E30C3810CF044FCD4E9000AD3
:1018700000280BDA20F00040A3682060ABEB0000EA
:101880009A452CBF00EB0A0B00EB030B0C9AA38CC0
:10189000B4F87A90DFF85C8313FB02F39BB2B3FBDE
:1018A000F9F18AB20E9219FB02F292B2934240F21F
:1018B000E24080F0AF80D31A584380FB0801C0A3F8
:1018C000D3E90023FEF750FF20F07F4000EB0B032D
:1018D0000B930E9BD4F884B0BE1B1E442368278D47
:1018E0009A4538BF9A4694F91D30CDF83CA03E4445
:1018F00040F2E24A002B26850AFB09F780F2988025
:10190000E26D636D0C990E9803FB112395F820216D
:10191000AD4931F8126094F85020C2F3820231F8D8
:10192000122094F8881016447E4306F57426A74AC0
:101930000AFB01F106F23F26B6FBF2F67A08704385
:10194000963A0344616600216665A2652167934269
:1019500094BFE365E265A0FB080199A3D3E90023E6
:10196000FEF702FF0B9B1B1ABBFBFAF00AFB00F011
:101970000B93A0FB080192A3D3E90023FEF7F4FE2A
:10198000BE1B20F07F4BB4F87E20B4F87C10E184BD
:1019900042F2107303FB0272013A8D4BB2FBF7F275
:1019A000E2878C4AA4F824903B443A44B3FBF7F313
:1019B000B2FBF7F7A4F842308A1DBBB29342A4F8F9
:1019C0004A30C2BF5B1A063B9BB2A4F8463094F87B
:1019D000783013F0040308BFA4F840300121002040
:1019E00010F090F9002201218246104609F0B0FD66
:1019F00094F82070784B0737FFB2002100973A46E1
:101A000008460AF0BFFA30F002030E931DD0734867
:101A1000FFF794BA09FB113189B2484368A3D3E9AF
:101A2000002380FB0801FEF79FFEABEB00034FE7AE
:101A3000ABFB080162A3D3E90023FEF795FE20F07B
:101A40007F4000F1010B3E469DE7A6FB0823CDE950
:101A50000C23DDE90C015AA3D3E90023FEF784FE31
:101A600041F6585308935E4B0F9A0C99CDE9064303
:101A70005C4B0593E3681A440E9B03935A4B049204
:101A800020F07F44A4FB0389B1EB08004FF007036B
:101A90000D9903FB049961EB09014FF47A7200235D
:101AA000FEF762FE0E99CDF800B0CDE901400B9B28
:101AB0003A4608460AF0D4F930F00200A7D1BAF14C
:101AC000000F03D00122114609F042FD00232B74C0
:101AD00011B0BDE8F08F94F8783003B3434816F0A6
:101AE0005DFD0546B0B3002384F87830E38C3344C1
:101AF0000633A4F87E30037943F00303037108230F
:101B000043710123C371052204F17901083014F0F7
:101B100072FCB4F87E30A5F80D3029464BE6B4F8D7
:101B20007E30F31A190415D494F8743084F87530A3
:101B300004F11705052204F17901284614F05BFC35
:101B40000521284616F0A1FD637F60F30503637746
:101B50000123237794F8A52094F8A4309A421ED04C
:101B600005200CF053FB214816F018FD0146B0B1DA
:101B700094F8A43084F8A530037943F0030303718B
:101B800002234371C37194F8A6300372204616F005
:101B9000F2FFE38F012B98BF0133A4F84430144BBC
:101BA0000394029394F820300B990733DBB201932E
:101BB000A36800932246231D58460CF035FB05E52B
:101BC0008D49FD1A0700000040A7010040420F00A8
:101BD000FF5962027FC3C90139D7000062B001001A
:101BE00025D70000290F00008D49FD1A8C0A00201E
:101BF000B5E6000000CA9A3B94F87880B8F1000F6F
:101C0000A8D1B64816F0CAFC07460028A2D094F91D
:101C10001D30002B00F1040947DB04F586752B46C7
:101C2000424604F17A0104F1C00017F069FA10226B
:101C3000294604F22D1014F0DEFB04F225110822CF
:101C400004F5A37014F0D7FB94F8243184F83D8197
:101C500068F3000384F8243194F8453184F83E8118
:101C600043F0010384F8453194F8663184F83F81EC
:101C700043F01003C4E9478884F8408184F8418127
:101C800084F8428184F8438184F8448184F8663181
:101C90004946204616F072FF3946204616F06BFF83
:101CA00094F8743084F8753054E794F8663103F092
:101CB0004803082B00F0998094F87980B8F1000F60
:101CC00020D0037943F00303037194F850309A064F
:101CD00012D5D4F898305B070ED51123C3710323B6
:101CE000037280F8098002237B717B7901337B7159
:101CF000002384F87930CFE70D23FB7187F8088043
:101D00000123F1E7754816F049FC8146002867D0A9
:101D1000037943F0030303710D2343714FF0040A69
:101D200000F10803194680F807A00C2268680C939C
:101D300016F015FF0C9B0822194604F1820014F0DE
:101D40005AFB524609F1100104F2291014F053FB1A
:101D500004F586754946204616F00DFF2B4642468F
:101D600004F17A0104F1C00017F0CAF910222946E3
:101D700004F22D1014F03FFB082204F2251104F5A3
:101D8000A37014F038FB94F8243184F83D8143F0BB
:101D9000010384F8243194F8453184F83E8168F3D6
:101DA000000384F8453194F8663184F83F8143F0AC
:101DB000100384F866313B7984F8408143F00303D3
:101DC000C4E9478884F8418184F8428184F84381DA
:101DD00084F844813B7101237B710523FB715BE730
:101DE0003E49384616F0F3FBB4E64946204616F065
:101DF000C5FE94F8663123F00C0384F866314BE796
:101E0000364816F0CBFB014600283FF4A3AE94F809
:101E1000743084F87530037943F0030303710123B0
:101E200043711223C371204616F0A5FEB4F8423068
:101E3000A4F844308EE694F87820D50750D527488A
:101E400016F0ACFB054600283FF484AE94F87830D9
:101E50006FF3000384F87830DBB2C3F3820757EAEC
:101E6000531734D194F8742084F875209807A4F897
:101E70007A7016D502200BF0EDFA00283FF4AAA8DC
:101E8000238CC38007720E23037194F83830C3F398
:101E9000C203437294F83A30C3F3020383720CF026
:101EA00029F92B7943F003032B7105236B71182358
:101EB000EB7194F87830C3F382032B7294F8783086
:101EC000C3F342136B72B4F87A306B8125E6E38C6E
:101ED00033440633A4F87A30E3E700BF8C0A0020CD
:101EE000B4F87A30F31A19043FF534AE94F874302C
:101EF00084F8753094F83A0094F83830E58E12F092
:101F00001C0FC3F3C20700F0070068D1B4F8348097
:101F100012F0E00F08D094F83A30510961F302034F
:101F200084F83A304FF4A47594F83830C3F3801134
:101F300061F3C713920784F838300BD4DBB2C3F3D4
:101F4000C203BB4206D194F83A3003F00703834240
:101F50003FF400AE02200BF07DFA00283FF43AA8CF
:101F6000238CC3800E2303710023037294F838304E
:101F7000C3F3C203437294F83A30C3F3020383728B
:101F80000CF0B8F8A38E434503D1E38EAB423FF487
:101F9000E1ADA4F83480E58602200BF05BFA00285E
:101FA0003FF418A8238CC38002230371037A43F003
:101FB00003030372092343721523C372238E8381A3
:101FC000E38D0382E38EC381A38E43820CF092F8EB
:101FD00094F8673143F0020384F86731BAE5C2F33D
:101FE000820161F3C50384F83830E38D0E33DB00E2
:101FF000C1F34001CB409BB2B3F5A47F05D3B4F845
:102000003280984528BF984682E74FF4A4787FE74E
:102010000148FEF793BF00BFA6AF0100000000001B
:102020002DE9F04F91B00FF0D3FBC6B276B30FF0AD
:10203000EFFB5FFA80F90FF071FCC5B20FF078FC8E
:10204000C3B20A930FF032FE5FFA80FA0FF01CFE63
:102050005FFA80FB0FF02AFCC7B2AD4C0FF0A2FB79
:102060000FF078FC0FF052FC0FF014FE0FF016FC8E
:1020700094F81580B8F1050F01F22983DFE818F014
:102080007700C0000F00D008D008D0084FF0FF0B39
:102090003746B2463546B146CDF828B0DDE70123D4
:1020A00063750FF03DFD054696200FF063FC237D20
:1020B000013B032B01F20B83DFE803F0022C5C5C95
:1020C00000231A46194618460FF0C0FB0FF0AEFB6E
:1020D0000FF03EFB0FF072FB08B18E4818E30EF0D4
:1020E000B5FD38B10EA80EF055FB01469DF838003D
:1020F0000FF09EFD0021084617F04EF8CB35002169
:102100000544084617F044F8281A0FF0C3FC0FF0F6
:10211000F9FC2CE000231A46194618460FF096FBEE
:1021200094F84121D4F83C3153F8220008300FF0E4
:102130000FFB0FF043FB0028CFD10EF087FD38B125
:102140000EA80EF027FB01469DF838000FF070FD39
:102150000021084617F020F8CB3500210544084639
:1021600017F016F8281A0FF095FC0FF087FB11B046
:10217000BDE8F08FD4F8143193F8382093F83A0082
:102180000021D30900F00700C2F3C2020FF05EFB8A
:1021900094F84121D4F83C31D4F8140153F82210BA
:1021A000083116F047FC0FF009FB002895D1D4F850
:1021B000143193F83A00012100F0070016F0ECFF0B
:1021C000D4F8142192F83A3003F00703A335022B18
:1021D000054413D0042B0CBF4FF4BC7028200544D9
:1021E00092F83800C109C0F3C20016F0D1FF281AD6
:1021F0000FF050FC01200BF017FEB8E71820EEE7B7
:1022000026B9032363750FF0BBFAB0E7237DDBB279
:10221000022B00F09F82032B00F0A383012B41F0DF
:102220005682B9F1000FECD0BAF1000F29D0584610
:102230000EF0ECFA8DF838000FF0F8FA94F87920E7
:10224000064600782B234FF0270919FB023900F0CE
:102250000F03032B04EB090741D173780C2BD0D16A
:1022600014F8093003F00F03012BCAD094F8293079
:102270001A0708D575B99DF838000EF0F1FA48B97B
:102280002DE0FF20D6E70EAAB11CC0F380100EF09F
:1022900081FC00B314F809303278C3F38013B3EB38
:1022A000D21F1CD1062206F10801B81C14F093F8C5
:1022B000A8B9032363750FF0D3FA94F8C900272354
:1022C00003FB00407B300FF049FA0FF077FA00284B
:1022D0003FF44DAF01E794F829301B07CAD430789A
:1022E00000F00F03052B8CD17378222B89D114F8C1
:1022F000093003F00F03012B40F00581B51C0EAA35
:102300002946C0F380100EF045FC28B9002013E0E8
:102310003009002083B101003146384616F0B2FB87
:102320000028F3D09DF83830FF2B00F0D98094F8C6
:102330002A00C51A6842684100F0010000283FF4F5
:1023400060AF94F8823133B194F8803194F88121F0
:102350009A427FF456AFD4F8CC30002B3FF451AF03
:1023600004200BF077F8074600283FF44AAF4FF0FF
:10237000040B84F815B00FF003FAD4F8CC50D4F85D
:10238000081100234FF4B4722846C4F8CC3016F07C
:102390003CF90322288406F1120105F1140014F01F
:1023A0002AF805F1100318465A4605F1170806F1F8
:1023B0000E010A9314F01FF8052206F11E01404693
:1023C00014F019F80521404616F05FF96A7F0A9B60
:1023D00060F305026A7796F82320C2F30402AA7715
:1023E000328BAA8440F2E24808FB02F8F17EB27E0A
:1023F00042EA0122EA8419465A4605F16C0013F0BC
:10240000FAFFB38BE98C42F2107202FB0383013BAB
:10241000C54AB3FBF8F3EB87C44B881D43444244E1
:10242000B3FBF8F3B2FBF8F2A5F8423093B2834263
:10243000A5F84A30C2BF5B1A063B9BB2A5F84630EE
:102440002B8CFB8008233B7131464FF480733B811A
:1024500011F8083BC3F3C013FB75062207F11800FF
:1024600013F0C9FF07F10B030A9306F1020B07F102
:102470001103BAF1000F66D09DF83800FF2862D032
:102480000A9A0B9307F10A010EF05AFBBA7A0B9BDA
:102490000232BA7259460622184613F0ACFF727E19
:1024A000337E43EA0223FB83F27EB37E43EA0223B8
:1024B0003B84727F337F43EA02237B8496F8233088
:1024C000C3F3421387F82430288C0BF0EDF80BF09F
:1024D00011FE03200AF0BEFF002841D1944817E105
:1024E000337814F80920C3F38013B3EBD21F7FF4C1
:1024F0000DAF0622294607F1080013F06CFFB0FA71
:1025000080F0400918E794F82930C3F3C103990714
:1025100006D565B99DF838000EF0A2F938B9F5E690
:102520000EAAB11CC0F380100EF034FB20B131466E
:10253000384616F0A7FAFFE694F82930C3F3C10332
:102540009A07E6D4E2E606220021184613F07DFF42
:1025500033780A98C3F38013BB72062259469CE76E
:102560002B8CC3800D230371337813F020030ED01E
:102570006A7C2B7CE97C43EA0223AA7C42EA0122A2
:10258000697F534041F04001EB8369770123037277
:102590000BF0B0FD96F8232095F8503065495209AC
:1025A00062F3840385F8503094F8203131F812201A
:1025B00031F81330134408FB03F303F574235E4A28
:1025C00003F23F23B3FBF2F36B654FEA5803963BEC
:1025D000AB65737D40F2E24B00270BFB03F3AB6668
:1025E00039466F66384616F0D5FD54490A9000F218
:1025F00052404BA3D3E90023A0FB0101FEF7B4F83E
:10260000D4F884316B602722934238BF134620F000
:102610007F409A466B6D2A60E860AF60A8EB0308C4
:102620000FF078FA0B90F08A39460BFB00BB384666
:1026300016F0AEFD0B9BABF1300B9B440A9BABEB52
:10264000000BABEB030640F2B643009305223C4B74
:102650003946384609F096FC40F2B7410BF082F853
:1026600014F8093003F00F03012B344B0A9306D101
:1026700000973B4603223946384609F083FC2F4B2E
:10268000A8FB0389404626A3D3E900234946FEF769
:102690006BF840F2CE43A76895F820400893294B89
:1026A000CDE90653284B0593EB6853440493274B1D
:1026B00020F07F45A5FB03BC072303FB05CCB8EB4B
:1026C0000B0069EB0C01A7EB0A074FF47A724FF08D
:1026D000000A0023CDF80CA0FEF746F8174910A316
:1026E000D3E90023CDE90150A6FB0101FEF73CF838
:1026F000073420F07F40E4B200903B46224651462A
:10270000504609F0ADFB30F002033FF430AD104805
:1027100011F09CFF404080F311884FF0030002DF6E
:102720008D49FD1A070000007FC3C901FF596202ED
:10273000E3B4010040A7010040420F0000CA9A3BE9
:1027400065D70000CD8A0100290F00008D49FD1AD0
:1027500062B00100B5B194F8E1000A99C0F34000FD
:102760000EF022F80646B9F1000F00F0818094F8CF
:10277000E1309B070FD585B930460EF071F800287F
:1027800076D00AE0BAF1000F03D058460EF03EF8BA
:10279000E8E7FF26E7E7002D60D1D4F83C3194F854
:1027A000412153F82250287A10F00F0302D0062B53
:1027B00040F090876A7A252A6FD894F8E120D207F2
:1027C0006BD5D4F80021002A67D1BAF1000F14BFED
:1027D0003146FF21384616F0A0F9002848D10FF005
:1027E00025F80378032262F3030303702B7A02783F
:1027F000C3F3801363F3C7120C23437007460270C0
:1028000030460DF0B3FF94F8E1300146384613F03E
:10281000200F10F8023B36D0A9B343F040033B70C1
:10282000062213F0E8FD062205F10A0107F108006F
:1028300013F0E1FD94F8E03043F0020384F8E03057
:102840009620022363750FF095F800200EF0F2FF3A
:1028500038460EF083FF0FF055F936E53146504605
:102860000EF04AF9002898D194F8E130980794D4F2
:10287000032363750EF084FF94F8E0306FF3410397
:1028800084F8E03073E494F8E120C449C2F3001204
:1028900062F386133B700622C3E710F00D0F01D0E0
:1028A000062B12D16A7A252A0FD86B7A002BDFD03B
:1028B000D4F80031002BDBD1BAF1000F14BF314640
:1028C000FF21384616F029F9D2E7012B1DD02B7ACB
:1028D00003F00F03042BCBD16B7A252BC8D894F8C7
:1028E000E0309907C4D50EF0A1FF2B7A0278C3F32C
:1028F0008013B3EBD21FBBD1062205F10A010830C9
:1029000013F069FD0028D0D0B2E76B7A0C2BAFD161
:1029100005F1100832464146C0090EF077F900284B
:10292000C3D194F8E1302A7AC3F30013B3EBD21F7A
:102930000FD094F8E130C3F341039807C7D595F958
:102940000830002BC3DA6B7D03F0C003402BBED1EF
:10295000ABE706224146914813F03DFD0028A4D084
:10296000E7E794F8183194F84121D4F81451013371
:1029700084F818310026D4F83C318DF8376053F8CC
:1029800022A002238AF80430B9F1000F00F0D282AD
:1029900095F866319AF8081003F00102C1F380013E
:1029A000914200F09F8182F0010262F3000385F8FA
:1029B0006631237D032B02BF95F8503043F00103AD
:1029C00085F8503095F866311A0600F18681D5F801
:1029D000506195F86511301D471897F801B0BBF1AB
:1029E000000F00F0A1809B060AD5D5F83D31D5F83F
:1029F0004121013342F10002C5F83D31C5F84121C2
:102A0000435C03F00303032B40F08E80FB78023B12
:102A1000162B00F28980DFE813F017006700B90079
:102A20008700870087008700870089009A00870059
:102A3000C800870087008700C50087008700D20094
:102A4000DA000E0115013301032363750EF098FEC1
:102A50000EF0B4FE00287FF440AB3979D4F81401AD
:102A6000132908BF16210BF093FB0127D4F814019A
:102A700090F865319B4490F864315FFA8BFB5B45BD
:102A800080F865B100F003810026012F40F02A8113
:102A9000D4F814010BF018FA0023C4F814310FF025
:102AA00025F818B90FF016F80FF01AF83C4BD3F8C8
:102AB0001431002B3FF45BAB1EB13146188C0BF088
:102AC00085F99DF83730002B3FF451ABD4F8143121
:102AD000188C0AF0E9FDD4F814311B8CAAF80630E2
:102AE0000BF008FBFFF743BB082207F10E0105F1CD
:102AF0007A0013F080FCD4F81401042207F11601C7
:102B000000F2251013F077FCD4F8143193F8662105
:102B100042F0080283F86621B3F84220A3F844206B
:102B200093F8B42083F8B52000279FE795F8663125
:102B300023F0480343F0480385F86631B5F8423086
:102B4000A5F8443095F8B43085F8B530ECE7237D2E
:102B5000042B1BD1337943F00303337117237371B3
:102B60000323F371082205F1B801043013F043FC8C
:102B700095F8B630337495F8B730737406F11201D6
:102B80000C22606815F0EBFF0026CDE795F8663162
:102B900043F0080385F86631C6E700BF130A00203A
:102BA000300900203B79032BBED195F86631002710
:102BB00023F00C0385F86631A5F8447056E795F8C4
:102BC000FA30022262F3020385F8FA30ACE795F896
:102BD000F81095F8F9308B42A6D095F8FA3003F04A
:102BE0000702072AA0D00127974017F068073FF493
:102BF0003DAFB5F8FE20EA85B5F80221AA8603F0BC
:102C00000702052A01D10422DCE7B5F804210027D8
:102C100022B985F8F910A5F8442085E7A5F8FE202B
:102C200067F30203B5F80621A5F80471A5F802219F
:102C300085F8FA301AE795F80A31022262F30103A7
:102C400085F80A31237D032B7FF46EAFB44A4FF031
:102C50000433CDE90E2395F8383095F80A21C3F3F3
:102C6000C20343EA920303F0070310AA134495F842
:102C7000392013F8083C63F3020285F8392053E742
:102C800095F8783095F83920C3F38203F3E7D0E95B
:102C9000543100228B42A0F8642112D1002E3FF45F
:102CA000F3AED0F858111D68C0F850518B420CBFDC
:102CB000C0E95522C0F854519A49304615F087FCB6
:102CC000E2E6D0F85C21934208BF1A681B6808BF8F
:102CD000C0F85C21C0F85031D7E66FF3C71385F810
:102CE00066310026D4F814319AF8082093F866313A
:102CF000C2F3C002C3F340039A4240F0E7800320CE
:102D00000AF0A8FB002800F0E18094F8823183B338
:102D1000D4F84C31D4F85021934205D194F8802155
:102D200094F88111914224D0D4F85021934200F0BC
:102D3000CD8094F8803194F881219A4200F0C680C9
:102D400094F88031D4F8142123B9B4F87E11138C8F
:102D500099420ED094F88031002B00F0B78094F89F
:102D6000803104EB4303B3F87811138C994240F09F
:102D7000AD80D4F814219AF8095092F86631002DEC
:102D800000F0AD8013F010053DD00EF029FF08B91A
:102D90006548BDE40EF042FF054600286BD1D4F82B
:102DA000143193F866315B0715D4032363750EF075
:102DB000E7FC0EF003FD054600287FF48EA93D21B7
:102DC000D4F814010BF0E4F9D4F814010BF07CF8FA
:102DD000C4F8145163E69AF8083003F00303032B98
:102DE000E3D10EF023FD90F8018007464146C078FC
:102DF0000AF0FCFA0028D8D008F1030239460AF19B
:102E0000080013F0F8FAD4F814019AF8083090F892
:102E1000662112F0040F0ED003F003010329C4D180
:102E200090F91D709AF80B10002F02F0400237DB6A
:102E30001ABB022931D10022C3F30103A0F84820B4
:102E4000A0F84C20DAB25BB223B1022A37D80123B2
:102E50008DF83730D4F8143193F8662182F00202ED
:102E600083F8662195B3D3E94721013241F100018E
:102E7000C3E947212AE04546C5E78A1ED2B2092A9E
:102E80000BD840F2052727FA02F2D707D3D4274AF6
:102E900022FA01F1C907CED487E7112985D8F6E7D0
:102EA00042B90729C7D00229C5D011293FF67DAF05
:102EB0001F4AEDE78A1E012ABDD90B29F4E70DF15F
:102EC000370150460BF0DCFD0028C3D0D4F8143194
:102ED0004FF0000884F81981A3F8408042E013F015
:102EE000140FB7D0D38CB2F84A10981D8142C4BFDA
:102EF000CB1A063BB2F84600CCBF9BB20B469842B9
:102F000008D0A2F84630B2F84630A2F84830A2F80D
:102F10004C109FE7B2F84C30002B9BD1F3E700BF79
:102F2000010102018C0A0020A7B10100602002000B
:102F30004020020094F819210AB984F8193194F854
:102F4000198108F1FF385FFA88F884F81981B5F81B
:102F50004060B8FA88F84FEA5818002E73D1EB8F0A
:102F6000A5F84030D4F8145195F866E14FEADE1325
:102F70001EF0800F0A9340F0BC80D5F85021002A43
:102F800000F0B7801EF0080F5FD0D5F854319A4298
:102F900040F0AF80D5F8500195F8652195F864317F
:102FA000011D8F1813B97B7885F864312AB18B5CC9
:102FB0004FF0010C6CF301038B5495F864C1ACEB3A
:102FC000020C5FFA8CFC87F801C08B5C95F839B075
:102FD0006FF304138B540BF0070BAB8EBBF1020F96
:102FE00015BFDB089B080A3B0B3B9BB21EF0200F72
:102FF00018BF043BB5F82EE018BF9BB2734528BF3D
:1030000073469C4581BF7B708B5C43F010038B54EF
:1030100003681BB18B5C43F010038B54D5F854311B
:10302000002B7ED1D5F85C3198427AD0037903F039
:103030000303032B04D1C379032B72D00A2B70D066
:10304000C5E955006DE000268CE7137903F0030312
:10305000032B9FD1D379032B01D00A2B9AD195F85A
:10306000751095F874308B421BD095F87630032B91
:1030700090D0116800293CD0D5F85431994238D10C
:10308000C5F85011D5F858110B681360D5F86031A8
:103090000A60C5F85C21002B7FF47CAFC5F8602185
:1030A00078E795F8950095F894108842E1D195F865
:1030B0009D0095F89C108842DBD195F8D10095F8D9
:1030C000D0108842D5D195F8F90095F8F8108842CB
:1030D000CFD195F8090195F808118842C9D101228C
:1030E00085F87820013B032285F8762085F8753035
:1030F00050E795F8663143F0800385F866310EF0AD
:1031000091FB0378012262F3010300224270D5F89B
:10311000502103700746DBB2002A63D043F010034E
:103120003B703B78934D6FF347133B700023BB70AC
:103130006B7D032B5BD0B8F1000F56D1B9F1000FB6
:1031400006D09AF80830DA0602D47B78002B4CD0EF
:10315000D5F8143193F8A730002B46D102239620DE
:103160006B750EF007FCD5F8143193F83A0000F0B7
:1031700007000EF05FFB0EF0C5FCD4F814813B781D
:1031800098F8662198F83810C2F3000262F3C3037E
:1031900098F86621C2F3400262F38203C1F3C205CC
:1031A0003B70C9092846B8F82E900EF05FFA98F8DF
:1031B00066316A009B0642F001022AD509F104013A
:1031C000C9B208200EF098FA394608F22D100EF018
:1031D000E1FC0EF0C3FA0EF0F1FA00283FF45FAC08
:1031E000FEF77BBF62F304139AE703236B752B7D15
:1031F000042B0BD1D5F814310A9993F8662161F3A9
:10320000C71283F866210EF0BBFA48E40EF028FBE3
:10321000B3E708205FFA89F10EF06EFA3846D8E776
:10322000237D032B00F25382DFE813F03902040000
:1032300044008B00B8F1030F09D194F828305E07E1
:1032400005D00AF0D5FE0EF095FAFEF760BF0EF03D
:1032500053FB637D032B61D194F8285015F0400592
:103260005CD102220EA9606815F079FCBDF8381017
:1032700040F24712B1FBF2F302FB131341F2FC02DE
:1032800006923D4A01331BB2CDE90452CDE9025505
:10329000CDE90055052229462846ADF8383008F01A
:1032A00029FE30F0020339D0A37C052B36D03348F9
:1032B000FFF72EBAB8F1030F24D196200EF05AFB77
:1032C000002319461A4618460EF0C0FA94F8412118
:1032D000D4F83C3153F8220008300EF039FA0EF0E1
:1032E000CDFA0DF0B3FC38B10EA80DF053FA01463B
:1032F0009DF838000EF09CFC012363750EF034FA43
:10330000FEF705BF0EF0F8FA637D052B06D100230A
:10331000009304221946184608F034FE002525754E
:10332000657565740EF0AAFB2A4629462846144B9B
:1033300008F036F90546002800F0BD811148FFF776
:10334000E7B9D4F814010028E8D090F8A710D9B153
:10335000237D032B03D090F85030DD0714D50AF0FD
:1033600017FFD4F814010AF0AFFD0023C4F814319C
:10337000D4E700BF300900209DD70000BEB1010096
:10338000804B00205AB50100B0F82AB094F81871AB
:103390000BF10106B6B2002F00F09480237D032BC1
:1033A00040F084800EF0A2FB0A900EF0A5FB0A9B71
:1033B000D4F81471191A97F83A3003F00703022B66
:1033C0008046386E58D0042B0CBF4FF4BC794FF0B8
:1033D000280900F130034B4499420B93DFF808A30E
:1033E000BFA3D3E900234AD8A0FB0A01FDF7BCF92B
:1033F0000A9BA8EB03080B9B434420F07F4518462B
:10340000A0FB0A01B6A3D3E90023FDF7ADF920F034
:103410007F49D7F8502100233B66BB66002A3FD086
:10342000527912B997F8652102B17B85D4F814312D
:1034300000229A87D4F81401B0F84030CBB19E42F4
:1034400080F0EC809B1B9BB20022062BA0F8403042
:10345000428540F2E580237D032B0AD1BBF1000FAA
:1034600040F0DE80C26E12F001084FEA520345D1EF
:10347000C3664FF0000844E04FF01809A9E7A1FB2C
:103480000A01FDF771F920F07F4509F1300094A39E
:10349000D3E90023A0FB0A01FDF766F98146B8E7EE
:1034A00097F85030D907C1D5FB8CBEE741B190F8F1
:1034B000503043F0010380F850300025A946B5E7AD
:1034C0000D46FBE7858F85B1AE4204D2AD1B8587E3
:1034D0003D46A946AEE73E210AF05AFED4F8140153
:1034E0000AF0F2FCC4F8147118E7B0F84010002993
:1034F000EFD1C38FA0F840300D46EAE743F0004318
:10350000C366B0F844302BB19E4280F08C809B1B88
:10351000A0F84430B0F84C302BB19E4280F085804A
:103520009B1BA0F84C30D4F81471B7F8483097F8CA
:1035300074202BB19E4280F08A809E1BA7F84860C1
:1035400097F87530934240F08E807E8DB8F1000F71
:1035500002D1B34500F097800136B6B297F86731D3
:1035600013F0020100F099806FF3410387F867318F
:1035700097F91D30002B80F2888097F83A000121DE
:1035800000F0070015F006FE97F86721BB8E56493C
:1035900052074CBFB7F80021FA8E03F5E3731844C5
:1035A0001044A0FB01014EA3D3E90023FDF7DCF892
:1035B000F96820F07F40884293BFA1EB000C411ACC
:1035C0004FF0000C0021F86045EA09030B4353EA71
:1035D0000C0304D11EB9B8F1000F3FF49FAED4F82C
:1035E000143193F82020414B0732D7B2CDE9009136
:1035F0000021CDE9048306972B46CDE902C63A4661
:10360000084608F077FC30F002033FF487AEA37C55
:103610009F423FF483AE3648FFF77AB808219EE612
:103620004FF001086DE7222199E60023A0F84C3005
:10363000022009F00FFF00283EF450AFD4F81431F7
:103640001B8CC3800C2303710AF054FD6BE700212F
:10365000A7F84810B7F8441097F8753000297FF4A0
:103660006FAF934208D097F87630013B012B3FF6BD
:103670006CAF00237B8568E7052387F87630531EFF
:1036800087F875305CE7464668E797F83800C10967
:10369000C0F3C20015F077FD76E78C4694E7A8F1F9
:1036A0000408B8F1010F02D91248FFF731B800231E
:1036B0006375FEF75CBD2068436829465B689847E0
:1036C00001221146284607F043FFFEF750BD0A4885
:1036D000FFF71EB8022BFFF7E4B800BFAFF300807E
:1036E0008D49FD1A0700000000CA9A3BC5D70000AB
:1036F0001DB2010084B20100A6AF0100000000006D
:103700002DE9F04FBE4F8FB09A4602230D9397F9E3
:1037100028308DF82F10002B804693463E4601DA64
:103720000C2523E097F87A202B234FF0270919FB6B
:10373000023917F8093013F00E0F40F01A81D7F84C
:10374000CC50002DECD107F5867014F027FF04460D
:10375000002800F04C8107F5A47014F01FFF48B951
:1037600007F58671204614F032FF072528460FB072
:10377000BDE8F08F4FF6FF732362A562B7F82231E0
:10378000A3851B23E3852386B7F82431B7F82621C8
:10379000638694F83830E57762F3020384F83830B2
:1037A000B7F8282194F83930A4F8405062F3C503E3
:1037B00084F83930637FA4F8445003F03F0363F08A
:1037C0007F0363778F4B6363A36BA4F84C5023F4A0
:1037D000E02323F4FF6343F4803343F48473A3634F
:1037E0000623A38794F85030A4F8485023F023030D
:1037F00084F85030844B2567C4E91755A4F87450F9
:10380000A4F89450C4F8983094F89E30A4F89C50D2
:1038100023F0030384F89E3094F8D230A4F8A45027
:1038200065F3041384F8A750C4F8A800A4F8B450B2
:10383000A4F8D05084F8D230A4F8F850A4F8045179
:10384000A4F8085184F86651C4E95455C4E95655A2
:10385000C4F86051A4F864510AF0D8FDC7F8CC4010
:1038600096F829309DF82F2086F82AA062F30203EB
:103870006BF3C40386F82930D6F88431F36127232B
:10388000B361012100230DF12F00336214F0FDFE1E
:1038900017F8093003F00F03012B6CD14FF4277395
:1038A000584300F59C70594953A3D3E90023A0FB6A
:1038B0000101FCF759FFD6E906239A4238BF1A46A0
:1038C0007062934615F008F88246B8F1000F5AD19D
:1038D00017F8093003F00F035A1E5342534196F86C
:1038E00028504B4F4B4A63F38615736A86F828506D
:1038F0000DF1340915F040055B44CDE907794AD054
:103900000020CDE90520CDE90303CDE90130009089
:1039100053460522032108F0A3FA022837D00D9858
:10392000002857D102230D933B4B0690CDE9077930
:10393000CDE90200CDE9040303224AF2FE330093ED
:1039400001905346114608F08BFA02283ED00D9D97
:10395000002D3FD196F8283043F0800386F82830B8
:1039600096F8E030DB073FF501AF01200DF0B8FA23
:10397000FCE6002474E7022B0CBF4FF4297340F2DD
:10398000FC5358438FE70023A9E715F028F80D9B57
:10399000022BFAD0C3E7214802951FFA88F8CDE937
:1039A0000353A8FB00019123CDE9052503FB081172
:1039B00011A3D3E90023FCF7D7FE5346CDE900500D
:1039C000052203212846BEE715F009F80D9B022BBE
:1039D000FAD0BCE7002C3FF4A3AED4F8A8001049FD
:1039E00014F0F5FD0F49204614F0F1FD98E6092585
:1039F000BCE600BFAFF300808D49FD1A0700000050
:103A000030090020480148017F41010000CA9A3B6B
:103A1000E7890100A9E30000E1E30000002AE78450
:103A2000780A00203C0A00202DE9F84F044612F0E5
:103A30001CFC257B824615B114F04EFF05460FF2A3
:103A40006809D9E90089DFF868B00027606802F0EA
:103A500069FFA368A3EB0A03A36063685344636030
:103A6000237B01374BB9A368002BEFD1A06800304E
:103A700018BF01204042BDE8F88F14F02DFF294601
:103A800014F02CFFB0FBF7F60644606942464B4643
:103A9000A0FB0B01FCF768FE20F07F408642E2D9D4
:103AA000E4E700BFAFF300808D49FD1A0700000076
:103AB00000CA9A3B000000002DE9F04F8FB0D0F80B
:103AC00004A0DFF8D8900DF1370180460DF13600E3
:103AD00015F066FA9DF836300A939DF837300B934F
:103AE00014F0FAFEDAF81040A4FB094526A3D3E946
:103AF00000230027834629462046FCF735FECDE902
:103B00000777234B0593CDF818800646DAF81400A2
:103B10001DA3D3E90023A0FB0901FCF725FE1D4BE3
:103B200026F07F46A6FB039A20F07F400723CDE9CD
:103B3000037003FB06AAB4EB090065EB0A014FF41E
:103B40007A720023FCF710FE5B46CDE90160009716
:103B50000B9A0A98032108F083F930F002030AD186
:103B600045F6B3110C480FF09FFD38B9D8F808009E
:103B70000FB0BDE8F08F6FF04700F9E76FF03B0042
:103B8000F6E700BFAFF300808D49FD1A0700000083
:103B9000752601008D49FD1A2817002000CA9A3B9E
:103BA0002DE9F047067B044616B114F095FE064653
:103BB000606810F0030567D0A3682168C5F10405AB
:103BC0009D4228BF1D462A4602F0DAFE63682B4458
:103BD000636023682B442360A3685D1B237BA5607F
:103BE000002B51D014F078FE314614F077FE2C49AA
:103BF0004500606928A3D3E90023A0FB0101FCF77D
:103C0000B3FD20F07F4085423ED90EF0FDFC4FF021
:103C1000FF30BDE8F08723686068196802F0A2FEF3
:103C2000636804336360236804332360A368043B40
:103C3000A360237B013593B114F04EFE314614F09E
:103C40004DFEB0FBF5F70744606942464B46A0FBCA
:103C50000A01FCF789FD20F07F408742D5D8A26891
:103C6000032AD8D862B1D4E9001002F089FED4E961
:103C7000012123680B440A44236000236260A3608F
:103C80000EF0C2FC0020C4E70125DFF814A00FF2FB
:103C90000809D9E90089E2E78D49FD1A070000000B
:103CA00000CA9A3B10B5064C206818B113F02FF9E2
:103CB000002323600020BDE8104002F0B3B900BF2C
:103CC0001800002070B505460E4629B100210846AF
:103CD000BDE87040FFF7E6BF0D4C206828B113F037
:103CE00016F931463046FFF7DDFF284613F008F994
:103CF00004212060284613F03CF818B1132128460F
:103D000013F008F90120BDE8704000F02FB900BFA2
:103D1000180000201FB530B912F07DF9034628B114
:103D2000052000F023F905B05DF804FB0122ADF891
:103D300008008DF80920A022ADF80A20F022ADF885
:103D40000C2000900322024902A812F0C0FFEAE70B
:103D5000FCA00100044B186810B1132113F0DAB86D
:103D60000146FFF79FBF00BF1800002010B51249A1
:103D7000124815F00AFF42F21072104910480FF075
:103D8000B9FD00F02BF900F09BF80E4B987000F095
:103D9000D5F90D4804F08EFB044620B10520BDE89E
:103DA000104000F0E3B8094804F044FF2046BDE8A5
:103DB000104005F0A5BA00BF553D00001C000020D2
:103DC000A8180020C74F0020153D00001047002014
:103DD00030B5284887B00EF0B5FE436804461D682C
:103DE000032201230021A84763685D680023194668
:103DF00003222046A847204B1D680021ADF8021081
:103E00009DB1142201A812F020FB012302930DF1B1
:103E100002030393022304934FF48573ADF8143027
:103E20006B6801A95B682846984763681D68002392
:103E3000194603222046A847BDF90200FCF70AFAFA
:103E40000E49FCF75BFA0E49FCF74EF900210446D7
:103E5000FCF7F2FB50B90B492046FCF70BFC38B9D4
:103E60002046FCF711FCC0B207B030BD0020FBE7D4
:103E70006420F9E756A701003C0000200000B43E92
:103E8000000048430000C8422DE9FF41984605461E
:103E90000E461746094CFFF79BFF0123CDE901436E
:103EA000BDF82830207000933A46434631462846F4
:103EB00013F00FFF04B0BDE8F08100BF74190020BB
:103EC00008B507480EF03EFE4368064A1B680649DF
:103ED00010609847FFF77CFF044B187008BD00BFC7
:103EE00050A701003C000020F0A60100741900203A
:103EF00010B5194C194B2168186800291EDB0131D7
:103F00002329216012DC002901F00101B8BF4942D8
:103F1000C1F101010FF052FF2168114B114833F834
:103F200011100022BDE810400FF03CBE00210FF040
:103F300045FF0020BDE8104002F074B80A4B196834
:103F40004A1C002901F00101B8BF4942BDE81040F8
:103F50001A600FF033BF00BF344700207C00002000
:103F6000F8A60100440000204000002010B5184CC5
:103F70002268002A2ADA052823D8DFE800F0030D9A
:103F800014162219134815F077FE0121124BBDE8D3
:103F9000104018680FF012BF7D2211460D48BDE891
:103FA00010400FF0FFBDFA22F7E74FF4FA72F4E782
:103FB000094B012118680FF001FF00222260FA214D
:103FC000ECE7044815F058FE0021DFE710BD00BF04
:103FD00034470020440000207C00002038B51848F9
:103FE000184C0EF0AFFD436820601D681A220123B3
:103FF0000021A8472068436800211D6819224FF45A
:104000008173A8471049114B20684B604FF0007333
:104010008B604368DB680BB10122984720684368D6
:104020001B6913B119220021984709480949002248
:1040300015F016FE0020BDE83840FFF797BF00BF1F
:1040400056A701007C00002070000020BB3D01004D
:1040500044000020F13E0000014B1980704700BF72
:1040600028190020F7B50746BDF82000C518402DD7
:1040700011461C4625DC144E1A46304412F0BBF99A
:10408000402D1BD12021114B009301912B4632462C
:104090000F480FF017FF0F4B1B88022B0ED10E4D50
:1040A0000E4BEB61384613F087FE0338202828BFFB
:1040B000202028852946002006F0C6F9204603B0B6
:1040C000F0BD6FF00604F9E795190020751900207E
:1040D000D51900202819002090470020A0A1010038
:1040E00073B501A914461E46054611F0BBFF019B9E
:1040F000024623B16FF00104204602B070BD28468D
:104100000C4912F059F905460028F3D120220A493A
:104110003046A0472028044609D0202229460648D8
:1041200012F093F9002CA8BF6FF01504E4E72C46B9
:10413000E2E700BF5DA701007519002008B501F096
:1041400037FD0248BDE8084001F034BC7847002044
:104150002DE9F04FABB00AAA0023CC5842F8044B2B
:104160000433402BF9D1031F01931AAB029300F1E2
:104170001C030593DDE9013253F8041F42F8041BC8
:1041800005999942F8D11E9A1A9BD84D1F99D84C7F
:104190001C9FD84E02EB030E0A9B9E44036A8EEAD4
:1041A00003035D40D44B4FEA35452B4482EA030AB2
:1041B0000B9A4FEA3A3A9644D6448EEA05054FEAFE
:1041C000352503EB050989EA0A0A4FEAFA13069333
:1041D0001B9B426A01EB030C0C9B9C448CEA020281
:1041E0005440C64A0D9B4FEA3444224451404FEAA2
:1041F00031319C448C448CEA04044FEA3424131972
:10420000209A039359400E9B17441F44836AC06A47
:104210007B405E40BA4B4FEA364A53440F9E5A40A9
:104220004FEA32323744174487EA0A0A4FEA3A2AF9
:1042300003EB0A0888EA02024FEAF21307931D9E75
:10424000219B109A1E44164486EA000BAD48119A31
:104250008BEA0000DFF8B0B24FEA3040834483EAD3
:104260000B034FEA33331644129A1E444FEAF111FE
:10427000704096448E444FEA302083448EEA00001A
:104280004FEA30408044139A88EA01014FEA313105
:1042900096448E448EEA00004FEA3022089242444F
:1042A00004925140149A15989444079A94448CEAC5
:1042B0000505844416988BEA03034FEAF313074479
:1042C0001F447C404FEA3444A144179889EA030311
:1042D0004FEA333307441F447C404FEA3424A1445F
:1042E00089EA03034FEAF31307931898039B0644E4
:1042F0000698064486EA0A004FEA304003EB0008BD
:10430000069B88EA030A199B4FEA3A3A1E44564430
:104310004FEA3545AB4470408BEA02024FEA302049
:104320008044189B4FEA3232944488EA0A0A8CEAA5
:1043300005054FEAFA1A9E44D6444FEA3525AB44A8
:104340008EEA05054FEA3545A944149B89EA0A0A15
:104350004FEA3A3A9E44D6448EEA05054FEA35259F
:10436000A94489EA0A0A4FEAFA1306930E9B4FEA18
:10437000F1119C448C448CEA04044FEA3444A04478
:10438000129B88EA01014FEA31319C448C448CEA4B
:1043900004044FEA342408EB040303935940139BAD
:1043A0008BEA02024FEAF2121F441744049B784042
:1043B0004FEA304003EB0008199B88EA02024FEAFB
:1043C00032321F44174478404FEA3023099398440F
:1043D000179B10981E44079B1E44089B86EA030AFD
:1043E0004FEA3A4A079BD3448BEA03034FEA33333D
:1043F00006440B981E444FEAF11186EA0A0A8644E5
:104400008E444FEA3A2AD3448EEA0A0A4FEA3A4ADD
:10441000169888EA0202D04488EA01014FEA313155
:1044200086448E448EEA0A0A4FEA3A208044079076
:104430000A984FEAF212844494448CEA05054FEA44
:1044400035450C988BEA0303AB448BEA02024FEA32
:104450003232844494448CEA05054FEA35250BEB4F
:1044600005000490424015984FEAF31307441F4497
:104470007C404FEA3444A144119889EA03034FEA8F
:10448000333307441F440F987C404FEA34240644DA
:104490000698A144064489EA030309984FEAF313F6
:1044A00070400893039B4FEA304003EB000B069BE0
:1044B0008BEA030A0D9B4FEA3A3A1E445644704079
:1044C0004FEA30208344159B8BEA0A0A4FEAFA1A16
:1044D0009E44D6448EEA05054FEA3545A944129B11
:1044E00089EA0A0A4FEA3A3A9E440FE07F520E5197
:1044F0008C68059BABD9831F67E6096A85AE67BBED
:1045000072F36E3C19CDE05B3AF54FA5D6448EEAC6
:1045100005054FEA3525A94489EA0A0A4FEAFA1344
:104520000693169B88EA01014FEAF1119C448C44E2
:104530008CEA04044FEA3444A3440A9B8BEA010149
:104540004FEA31319C448C448CEA04044FEA342411
:104550000BEB0403039359400F9B4FEAF2121F44E5
:10456000174478404FEA304080440C9B88EA0202AE
:104570004FEA32321F44174478404FEA3023099300
:104580009844199B17981E44089B1E44079B86EA73
:10459000030A049B4FEA3A4A03EB0A0B089B8BEA97
:1045A00003034FEA3333064414981E444FEAF111D3
:1045B00086EA0A0A86448E444FEA3A2AD3448EEAAF
:1045C0000A0A4FEA3A4A189888EA0202D04488EA6E
:1045D00001014FEA313186448E448EEA0A0A4FEADD
:1045E0003A20804407900D984FEAF2128444944494
:1045F0008CEA05054FEA354510988BEA0303AB4476
:104600008BEA02024FEA3232844494448CEA050574
:104610004FEA35250BEB05000490424011984FEA14
:10462000F31307441F447C404FEA3444A1440B98E1
:1046300089EA03034FEA333307441F4413987C404D
:104640004FEA342406440698A144064489EA030349
:1046500009984FEAF31308937040039B4FEA3040E8
:1046600003EB000B069B8BEA030A0E9B4FEA3A3AD8
:104670001E44564470404FEA30208344119B8BEA1D
:104680000A0A4FEAFA1A9E44D6448EEA05054FEA12
:104690003545A944139B89EA0A0A4FEA3A3A9E44EF
:1046A000D6448EEA05054FEA3525A94489EA0A0A67
:1046B0004FEAFA1306930D9B88EA01014FEAF111C4
:1046C0009C448C448CEA04044FEA3444A3440B9B7E
:1046D0008BEA01014FEA31319C448C448CEA04049A
:1046E0004FEA34240BEB040303935940179B4FEA22
:1046F000F2121F44174478404FEA30408044169B22
:1047000088EA02024FEA32321F44174478404FEAE7
:10471000302309939844159B18981E44089B1E4407
:10472000079B86EA030A049B4FEA3A4A03EB0A0B0B
:10473000089B8BEA03034FEA333306440C981E446C
:104740004FEAF11186EA0A0A86448E444FEA3A2A71
:10475000D3448EEA0A0A4FEA3A4A109888EA0202DB
:10476000D04488EA01014FEA313186448E448EEA12
:104770000A0A4FEA3A20804407900F984FEAF21253
:10478000844494448CEA05054FEA354514988BEA35
:104790000303AB448BEA02024FEA3232844494446E
:1047A0008CEA05054FEA35250BEB050004904240E5
:1047B0000E984FEAF31307441F447C404FEA3444F9
:1047C000A1440A9889EA03034FEA333307441F449C
:1047D00019987C404FEA342406440698A1440644C4
:1047E00089EA030309984FEAF31308937040039B87
:1047F0004FEA304003EB000B069B8BEA030A129B47
:104800004FEA3A3A1E44564470404FEA30208344FF
:10481000139B8BEA0A0A4FEAFA1A9E44D6448EEAA0
:1048200005054FEA35450A9BA94489EA0A0A4FEA79
:104830003A3A9E44D6448EEA05054FEA3525A94406
:1048400089EA0A0A4FEAFA1306930F9B88EA0101E4
:104850004FEAF1119C448C448CEA04044FEA34443E
:10486000A344119B8BEA01014FEA31319C448C44F3
:104870008CEA04044FEA34240BEB040303935940FD
:104880000C9B4FEAF2121F44174478404FEA304025
:1048900080440E9B88EA02024FEA32321F441744DA
:1048A00078404FEA302309939844149B19981E448A
:1048B000089B1E44079B86EA030A049B4FEA3A4A78
:1048C00003EB0A0B089B8BEA03034FEA33330644DE
:1048D00018981E444FEAF11186EA0A0A86448E446B
:1048E0004FEA3A2AD3448EEA0A0A4FEA3A4A0B9828
:1048F00088EA0202D04488EA01014FEA3131864455
:104900008E448EEA0A0A4FEA3A20804407901598AE
:104910004FEAF212844494448CEA05054FEA354587
:1049200016988BEA0303AB448BEA02024FEA323259
:10493000844494448CEA05054FEA35250BEB0500C9
:104940000490424010984FEAF31307441F447C4000
:104950004FEA3444A144129889EA03034FEA3333FF
:1049600007441F440D987C404FEA342406440698BF
:10497000A144064489EA030309984FEAF313089314
:104980007040039B4FEA304003EB000B069B8BEA21
:10499000030A179B4FEA3A3A1E44564470404FEAC6
:1049A000302083440C9B8BEA0A0A4FEAFA1A9E4491
:1049B000D6448EEA05054FEA3545A944169B89EA97
:1049C0000A0A4FEA3A3A9E44D6448EEA05054FEA6F
:1049D0003525A94489EA0A0A4FEAFA130693109B7F
:1049E00088EA01014FEAF1119C448C448CEA0404EA
:1049F0004FEA3444A344149B8BEA01014FEA31315E
:104A00009C448C448CEA04044FEA34240BEB0403EA
:104A1000039359400A9B4FEAF2121F44174478400F
:104A20004FEA30408044159B88EA02024FEA323256
:104A30001F44174478404FEA302309939844129B4F
:104A40000D981E44089B1E44079B86EA030A049B9C
:104A50004FEA3A4A03EB0A0B089B8BEA03034FEA3F
:104A6000333306440E981E444FEAF11186EA0A0ACF
:104A700086448E444FEA3A2AD3448EEA0A0A4FEA21
:104A80003A4A179888EA0202D04488EA01014FEABC
:104A9000313186448E448EEA0A0A4FEA3A20804435
:104AA000079011984FEAF212844494448CEA050569
:104AB0004FEA35450F988BEA0303AB448BEA0202B9
:104AC0004FEA3232844494448CEA05054FEA352596
:104AD0000BEB05000490424019984FEAF31307448A
:104AE0001F447C404FEA3444A144189889EA0303E8
:104AF0004FEA333307441F440B987C404FEA342479
:104B000006440698A144064489EA030309984FEA3B
:104B1000F31308937040039B4FEA304003EB000B04
:104B2000069B8BEA030A139B4FEA3A3A1E4456440B
:104B300070404FEA30208344169B8BEA0A0A4FEA02
:104B4000FA1A9E44D6448EEA05054FEA3545A94433
:104B50000F9B89EA0A0A4FEA3A3A9E44D6448EEA03
:104B600005054FEA3525A94489EA0A0A4FEAFA13EE
:104B700006930B9B88EA01014FEAF1119C448C4497
:104B80008CEA04044FEA3444A344199B8BEA0101E4
:104B90004FEA31319C448C448CEA04044FEA3424BB
:104BA0000BEB040303935940189B4FEAF2121F4486
:104BB000174478404FEA30408044179B88EA02024D
:104BC0004FEA32321F44174478404FEA30230993AA
:104BD00098440E9B14981E44089B1E44079B86EA2B
:104BE000030A049B4FEA3A4A03EB0A0B089B8BEA41
:104BF00003034FEA333306440A981E444FEAF11187
:104C000086EA0A0A86448E444FEA3A2AD3448EEA58
:104C10000A0A4FEA3A4A119888EA0202D04488EA1E
:104C200001014FEA313186448E448EEA0A0A4FEA86
:104C30003A208044079010984FEAF212844494443A
:104C40008CEA05054FEA35450D988BEA0303AB4422
:104C50008BEA02024FEA3232844494448CEA05051E
:104C60004FEA35250BEB05000490424013984FEABC
:104C7000F31307441F447C404FEA3444A1440C988A
:104C800089EA03034FEA333307441F4412987C40F8
:104C90004FEA342406440698A144064489EA0303F3
:104CA00009984FEAF31308937040039B4FEA304092
:104CB00003EB000B069B8BEA030A159B4FEA3A3A7B
:104CC0001E44564470404FEA30208344179B8BEAC1
:104CD0000A0A4FEAFA1A9E44D6448EEA05054FEABC
:104CE0003545A944159B89EA0A0A4FEA3A3A9E4497
:104CF000D6448EEA05054FEA3525A94489EA0A0A11
:104D00004FEAFA130693119B88EA01014FEAF11169
:104D10009C448C448CEA04044FEA3444A344189B1A
:104D20008BEA01014FEA31319C448C448CEA040443
:104D30004FEA34240BEB040303935940169B4FEACC
:104D4000F2121F44174478404FEA304080440B9BD6
:104D500088EA02024FEA32321F44174478404FEA91
:104D60003023099398440D9B13981E44089B1E44BE
:104D7000079B86EA030A049B4FEA3A4A03EB0A0BB5
:104D8000089B8BEA03034FEA333306440F981E4413
:104D90004FEAF11186EA0A0A86448E444FEA3A2A1B
:104DA000D3448EEA0A0A4FEA3A4A0A9888EA02028B
:104DB000D04488EA01014FEA313186448E448EEABC
:104DC0000A0A4FEA3A208044079019984FEAF212F3
:104DD000844494448CEA05054FEA35450E988BEAE5
:104DE0000303AB448BEA02024FEA32328444944418
:104DF0008CEA05054FEA35250BEB0500049042408F
:104E000012984FEAF31307441F447C404FEA34449E
:104E1000A144109889EA03034FEA333307441F443F
:104E20000C987C404FEA342406440698A14406447A
:104E300089EA030309984FEAF31308937040039B30
:104E40004FEA304003EB000B069B8BEA030A149BEE
:104E50004FEA3A3A1E44564470404FEA30208344A9
:104E6000109B8BEA0A0A4FEAFA1A9E44D6448EEA4D
:104E700005054FEA3545A944199B89EA0A0A4FEA14
:104E80003A3A9E44D6448EEA05054FEA3525A944B0
:104E900089EA0A0A4FEAFA130693189B88EA010185
:104EA0004FEAF1119C448C448CEA04044FEA3444E8
:104EB000A344139B8BEA01014FEA31319C448C449B
:104EC0008CEA04044FEA34240BEB040303935940A7
:104ED000159B4FEAF2121F44174478404FEA3040C6
:104EE00080440D9B88EA02024FEA32321F44174485
:104EF00078404FEA3023984409930A9B1E44089B4C
:104F00001E44079B129886EA030A049B4FEA3A4A1A
:104F100003EB0A0B089B8BEA03034FEA3333064487
:104F200016981E444FEAF11186EA0A0A86448E4416
:104F30004FEA3A2AD3448EEA0A0A4FEA3A4A0C98D0
:104F400088EA0202D04488EA01014FEA31318644FE
:104F50008E448EEA0A0A4FEA3A2007908044179856
:104F60004FEAF212844494448CEA05054FEA354531
:104F700011988BEA0303AB448BEA02024FEA323208
:104F8000844494448CEA05054FEA35250BEB050073
:104F9000049042400B984FEAF31307441F447C40AF
:104FA0004FEA3444A1440E9889EA03034FEA3333AD
:104FB00007441F4414987C404FEA34240644069862
:104FC000A144064489EA030309984FEAF3130893BE
:104FD0007040039B4FEA304003EB000B069B8BEACB
:104FE000030A0F9B4FEA3A3A1E44564470404FEA78
:104FF00030208344149B8BEA0A0A4FEAFA1A9E4433
:10500000D6448EEA05054FEA3545A9440C9B89EA4A
:105010000A0A4FEA3A3A9E44D6448EEA05054FEA18
:10502000352509EB050383EA0A0A03934FEAFA13CD
:105030000693129B88EA01014FEAF1119C440E9BF2
:105040008C448CEA04049C44119B4FEAF2121F44E6
:10505000174478404FEA30408044109B88EA0202AF
:105060004FEA32321F44174478404FEA30208044E0
:1050700088EA02024FEAF21309930B9B1E44089B35
:105080004FEA34441E44079BA34486EA030A8BEA92
:105090000101049B4FEA31314FEA3A4A03EB0A0916
:1050A0008C44089B0F9A8CEA04044FEA342489EA62
:1050B0000303A3444FEA33331644199A1E448BEA80
:1050C00001014FEAF11186EA0A0A96448E444FEA3A
:1050D0003A2AD1448EEA0A0A4FEA3A4AD044159A4B
:1050E00088EA01014FEA31319644139A8E44944480
:1050F000CDF868E0099A8EEA0A0E4FEA3E2E9444F3
:10510000F0448CEA0505CDF8908088EA01084FEA62
:10511000F8114FEA354589EA03031F91A94418990C
:10512000CDF8A4E089EA02024FEA32328C440CEB5B
:1051300002014D404FEA352526954D4425955540B1
:105140000D9A1B914FEAF31317441F447C40039AB6
:105150004FEA344402EB0409169A89EA03034FEA42
:10516000333317441F447C404FEA342427944C4483
:1051700022945C40179B1C971E44069B1E44704063
:105180004FEA304083448BEA030A0A9B4FEA3A3ADB
:105190001E44564470404FEA3020289058442390D3
:1051A00080EA0A004FEAF5154FEAF4144FEAF010CE
:1051B000209521941D961E90029A019952F8043B65
:1051C000029251F8042F01915340029AD269534040
:1051D0000B60059B8B42EFD12BB0BDE8F08F00BF79
:1051E00038B57C220D460021044611F02EF9114AF3
:1051F000114B12491248C4E90023124BC4E90213AF
:10520000114BC4E90403114BA36103F17453A3F5DB
:105210002303A3F69243E361221F0023E85852F8C8
:10522000041F04334140202B1160F7D12B786367B2
:10523000002038BD67E6096A85AE67BB72F36E3C35
:105240007F520E513AF54FA58C68059BABD9831F51
:10525000F0B51D464B1E1F2B99B00646174603D9C5
:105260004FF0FF3019B0F0BD002AF9D06B1E1F2B94
:10527000F6D8002440F201138DF8001008222146D0
:1052800004A8ADF802308DF80150CDE90144039433
:1052900011F0DBF80822214606A811F0D6F869467D
:1052A0003046FFF79DFFA042DADB4022214608A8E6
:1052B00011F0CBF82A46394608A811F09CF8402294
:1052C00008A930460EF090FD034B40221B68214692
:1052D00008A898472046C5E7BC470020F0B589B02C
:1052E0000D460446164600212022684611F0ADF80E
:1052F000002D42D0636FB3423FD8A36A002B3CD14C
:10530000236A206FC3182362636A2CBF0122002224
:10531000134494F8782063624FF0FF3302B1E362E4
:1053200004F13007A362C0F140020021384411F0BB
:105330008CF839462046FEF70BFF211F6B461C34C4
:1053400051F8042F1A70100A5870A1424FEA124007
:105350004FEA12629870DA7003F10403F0D132461A
:105360006946284611F047F8054B20221B680021AA
:1053700068469847002009B0F0BD4FF0FF30FAE7CB
:10538000BC47002010B5094C0A44914200D110BD21
:1053900011F8013B43401809205C80EA0310C3B2B6
:1053A0001809205C80EA0310C0B2EEE767A701008D
:1053B0000B6801330B60014B1B681847C047002086
:1053C0002DE9F04F85B09B460E9CDFF88890012CAC
:1053D000B8BF0124012B0CBF302320231646824680
:1053E0008846029301250A270022B6FBF9F30193B0
:1053F0000AB9B1451DD8019B414603F13000D047A1
:1054000001350122019B013F012F09FB13664FF07B
:105410000A03B9FBF3F9E8D1414606F13000D04761
:10542000BBF1030F02D1641B002C0EDC05B0BDE8FC
:10543000F08FBC42E6DBBBF1020FE3D84146029895
:1054400003920135D047039ADCE741462020D0473C
:10545000013CE9E700CA9A3B07B5002301930246E5
:105460000B46034801A90EF081FF03B05DF804FB71
:10547000B153000030B585B0CDE9010104460025E7
:1054800001A9054803950EF071FFDDE9023098424D
:10549000B8BF255405B030BD474301004FF020028E
:1054A000EFF3118382F31188BFF36F8F044A012158
:1054B000C2F8401583F31188BFF36F8F0020704747
:1054C00000E00140014B1868704700BF1C480020F5
:1054D000F0B5082289B00C4606460FF0A4FACB6A54
:1054E00003930B6B04934B6B05938B6B0693CB6B06
:1054F0000793002708236A4669466846CDE9017785
:1055000000970FF095F9082305466A463146304664
:105510000FF08EF9236B0393636B0493A36B0593D6
:10552000E36B0544CDE906376A46082369466846B9
:105530000FF07EF93146054408236A4630460FF0E5
:1055400077F9236A0093636A0193A36A0293A36BBA
:105550000693E36B0793054408236A463046CDE97A
:10556000047703970FF064F9636A0093A36AA26B50
:105570000193E36A02930492636BE26B0393CDE9B8
:105580000523236A0793054408236A4630460FF033
:105590004FF9E36A0093236B0193636B0293236AD1
:1055A0000693A36A0793054408236A463046CDE96B
:1055B000047703970FF06DFA236B0093636B0193ED
:1055C000A36B0293E36B0393636A0693E36A079307
:1055D0002D1A08236A463046CDE904770FF059FAB0
:1055E000636B0093A36B0193E36B0293236A0393B2
:1055F000636A0493A36ACDE90537236B07932D1AD9
:1056000008236A4630460FF044FAA36B0093E36B1D
:10561000CDE90137636A0393A36A0493E36ACDE992
:105620000537636B07932D1A08236A4630460FF03F
:1056300030FA2D1A0D4C0FD435B9082231462046C8
:105640000FF0FDF901280FD00823224631463046DD
:105650000FF01FFA2D1AEFE7082322463146304695
:105660000FF0E6F82D18F7D409B0F0BDECA1010059
:10567000F0B5284E07460C460FCE8DB001AD0FC5D4
:105680000FCE0FC596E8070085E80700002F3CD035
:10569000002C3CD0381F2146024610344B780D7840
:1056A0001B0443EA0563CD782B438D78043143EA2C
:1056B00005238C4242F8043FF0D1174C04218A079D
:1056C000036918D14FEA33631A0EA55CDAB2A25C03
:1056D00042EA0562C3F30745C3F30723655DE35C54
:1056E00042EA054242EA03220CAD21F003032B44B7
:1056F00053F82C3C534050F8042F013153402C29CF
:105700000361DCD101200DB0F0BD3846FBE7204637
:10571000F9E700BFA4A0010086A701002DE9F0432E
:10572000154689B00746002859D000295AD0002ACA
:105730005AD010230A46684619460EF0B5FF29468E
:105740006846DFF8A8900FF0BBFE05F11006C846CA
:10575000A0356C466A4610231178013B19F80110F8
:1057600002F8011BF8D168460FF0EFFE694604A865
:105770000FF024FF01A905A80FF020FF02A906A839
:105780000FF01CFF03A907A80FF018FF10231946FC
:105790000DEB030268460EF087FF3146684610366F
:1057A0000FF08EFEAE42D4D110262378013E18F8B9
:1057B000033004F8013BF8D168460FF0C6FE2946D5
:1057C00068460FF07DFE102319466A4638460EF0F3
:1057D0006BFF6846102231460EF073FF012009B0BE
:1057E000BDE8F0830846FAE71046F8E786A701000F
:1057F00013B50A4C206818B909480DF0A3F92060C8
:10580000436804221B680DEB02019847002802DA66
:1058100000F004FF0190019802B010BD800000204C
:1058200086A80100084B30B51D68084B1968002395
:105830009D4202DC0022104630BD1C010A190C5D9D
:105840008442F8D00133F3E7B8A2010020480020D9
:10585000084B1B6810B50C462BB1FFF7E3FF28B1CE
:105860002060002010BD6FF00C00FBE76FF001001E
:10587000F8E700BF2048002030B589B00C46154637
:105880000190FFF7CFFFB8B14368029383682268A5
:10589000C068CDE9033500230593CDE906230DF05B
:1058A00051F960B101AA074913F08BFE079808B9B6
:1058B000059B236009B030BD6FF01500FAE76FF06B
:1058C0001200F7E7F35E01000E4B2DE9F0411C6872
:1058D00006460F46904694B14FF0FF310A480DF04E
:1058E00061FB636820469D683A4643463146A847B7
:1058F000044605480DF0C8FB2046BDE8F0816FF076
:105900000104F9E78C000020FC5000200E4B10B57C
:105910001C680021224632B941B904605A681860F7
:105920005AB9586009E011461268F4E70C683CB9AE
:1059300002605A6812B9C3E9000010BD1060F0E7B8
:1059400004600860F9E700BF84000020014B186084
:10595000704700BF8C00002038B54FF0FF3105467E
:105960000A480DF01FFB0A4B1C6834B163682046DF
:105970001B68294698472468F7E7284600F09CF8FA
:10598000044602480DF080FB204638BDFC50002044
:1059900084000020024B0022C3E90022704700BFB0
:1059A00084000020024B0022C3E90022FFF7F2BF6F
:1059B0009000002070B54FF0FF3106461748184C94
:1059C000184D0DF0EFFAAC420CD3174D2C68BCB952
:1059D0006A68002406F114037461E2B9C5E9003372
:1059E000144606E02168306810F0DAFC30B96FF038
:1059F00010040A480DF048FB204670BD1434E2E75D
:105A0000143C002CE4D02168306810F0C9FC002858
:105A1000EDD06469DBE713606B60EAE7FC500020BF
:105A200068A00100A4A00100900000202DE9F3412E
:105A300007460E4609B100230B601C4CDFF874804A
:105A40000025444508D31A4B1C680CB1143CC4B95A
:105A5000284602B0BDE8F08101AA2168384610F05E
:105A6000E1FA60B125B90EB1019B3360254606E02D
:105A700000222968206810F0D5FA0028F3D11434E8
:105A8000DFE701AA2168384610F0CCFA60B125B9E9
:105A90000EB1019B3360254606E00022296820688C
:105AA00010F0C0FA0028F3D16469CEE768A00100C5
:105AB00090000020A4A00100F8B5184C184F06462D
:105AC0000025BC4206D3174B1C680CB1143C9CB992
:105AD0002846F8BD1EB9E3684BB91434F1E700223B
